:100000000C946A000C9492000C9492000C94920050
:100010000C9492000C9492000C9492000C94920018
:100020000C9492000C9492000C9492000C94920008
:100030000C9492000C9492000C9492000C949200F8
:100040000C9499050C9492000C9492000C949200DC
:100050000C9492000C9492000C9492000C949200D8
:100060000C9492000C9492009E06AF084609EB098E
:10007000900A0C0B720CDA0D00000000250028001D
:100080002B000000000023002600290004040404C3
:100090000404040402020202020203030303030332
:1000A000010204081020408001020408102001020F
:1000B00004081020000000080002010000030407EB
:1000C00000000000000000000000000024002700E5
:1000D0002A00660E11241FBECFEFD8E0DEBFCDBFD1
:1000E00011E0A0E0B1E0EEEBF2E202C005900D926B
:1000F000A83DB107D9F722E0A8EDB1E001C01D92FB
:10010000A235B207E1F710E0CAE6D0E004C02197BB
:10011000FE010E944B11C936D107C9F70E94E305C1
:100120000C945D110C94000040E0682F85EF91E085
:100130000C944B04009769F0FC0101900020E9F752
:100140003197AF01481B590BBC0185EF91E00C942E
:100150006F0380E090E008958F929F92AF92BF92DC
:100160000F931F93CF93DF93CDB7DEB7A1970FB651
:10017000F894DEBF0FBECDBF19A2423008F44AE0AA
:100180008E010F5D1F4F842E912CA12CB12CA50147
:1001900094010E94D70EE62FB901CA01015011093E
:1001A000EA3014F4E05D01C0E95CD801EC93232B44
:1001B000242B252B61F7C8010E949A00A1960FB647
:1001C000F894DEBF0FBECDBFDF91CF911F910F918D
:1001D000BF90AF909F908F90089581E00E9494000F
:1001E0008BE39FE10197F1F70895643008F063E035
:1001F00090910802691710F06FEF690FE62FF0E099
:10020000EB50FE4F9489890F80680C949400CF9333
:10021000DF93EC01698718860E94B503882319F0E3
:100220008885836088870E948D056A837B838C83A1
:100230009D83DF91CF910895CF92DF92EF92FF924D
:100240001F93CF93DF93EC0188858B7F8887CE0146
:100250000E94B503182F888586958170181759F06C
:100260000E948D056A837B838C839D83988582E0C1
:10027000892788872AC00E948D05CA80DB80EC8090
:10028000FD80AB01BC014C195D096E097F098E81AF
:100290009F81A0E0B0E0481759076A077B07A8F0E4
:1002A00088858170181789F00E948D056A837B8389
:1002B0008C839D83988581E08927846088870E944C
:1002C0008D056A877B878C879D87888582FB882739
:1002D00080F9DF91CF911F91FF90EF90DF90CF9049
:1002E0000895FC01808580FD04C082FB882780F989
:1002F000089580E008950C949A008F929F92AF9297
:10030000BF92CF92DF92EF92FF920F931F93CF9302
:10031000DF936B017C01142F9B01AC010E944611FD
:10032000882319F08CEC91E027C046015701E8942E
:10033000B7F82FEF3FEF4FE75FE7C501B4010E9429
:10034000461181110DC02FEF3FEF4FE75FE7C50169
:10035000B4010E94750F18161CF480ED91E00CC0DA
:100360002FEF3FEF4FE75FE4C701B6010E94D410C3
:10037000181684F484ED91E0DF91CF911F910F91D5
:10038000FF90EF90DF90CF90BF90AF909F908F90B5
:100390000C949A002FEF3FEF4FE75FECC701B601D7
:1003A0000E94750F87FDE6CF20E030E0A901C7016C
:1003B000B6010E94750F87FF0DC041E06DE285EF29
:1003C00091E00E944B04F7FAF094F7F8F094C1E042
:1003D000D0E002C0C0E0D0E000E060E070E080E08B
:1003E0009FE3101741F020E030E040E251E40E942A
:1003F0007A0F0F5FF6CFA70196010E94090F6B01DC
:100400007C010E94F30F4B015C014AE00E94AC00AA
:10041000C80FD91F1123B9F1C501B4010E942210E0
:100420009B01AC01C701B6010E94080F6B017C0162
:1004300041E06EE285EF91E00E944B04219620E0BE
:1004400030E040E251E4C701B6010E94D9104B01EF
:100450005C010E94F30F6B01E12CF12C4AE0C70113
:10046000B6010E94AC00C80FD91FC701B6010E9497
:1004700022109B01AC01C501B4010E94080F6B0161
:100480007C011150E1F6CE01DF91CF911F910F91C8
:10049000FF90EF90DF90CF90BF90AF909F908F90A4
:1004A0000895CF92DF92EF92FF9297FF18C06B01F1
:1004B0007C0141E06DE285EF91E00E944B046627EC
:1004C0007727CB016C197D098E099F094AE00E94AC
:1004D000AC000196FF90EF90DF90CF9008954AE036
:1004E000FF90EF90DF90CF900C94AC00CF93DF9310
:1004F000282F30E0F901EC54FF4F8491F901E056C8
:10050000FF4FD491F901E457FF4FC491CC2391F0F0
:1005100081110E94A404EC2FF0E0EE0FFF1FEE57B4
:10052000FF4FA591B491EC91ED2381E090E021F48F
:1005300080E002C080E090E0DF91CF9108951F93AA
:10054000CF93DF93282F30E0F901EC54FF4F8491D3
:10055000F901E056FF4FD491F901E457FF4FC491E0
:10056000CC23C1F0162F81110E94A404EC2FF0E0DF
:10057000EE0FFF1FE858FF4FA591B4919FB7F89475
:10058000111104C08C91D095D82302C0EC91DE2BC0
:10059000DC939FBFDF91CF911F910895CF93DF939D
:1005A000823028F090910402986090930402809326
:1005B00008021092090280E480930A0280E180938D
:1005C0000B0280E580930C0261E08091F9010E94AA
:1005D000CD048091FA018F3F19F061E00E94CD04B3
:1005E00061E08091FB010E94CD04C5EFD1E09E0146
:1005F000255F31408091040284FD03C084E090E0D7
:1006000002C088E090E02196281739072CF461E0B9
:100610008E810E94CD04EBCF8BE39DE00197F1F733
:1006200060E08091F9010E949F0260E08091FB01EF
:100630000E949F028091FA018F3F19F060E00E94B2
:100640009F028091040284FD20C063E085EF91E069
:100650000E941E04CBE4D6E4CE010197F1F763E0DB
:1006600085EF91E00E941E042197F1F763E085EF8A
:1006700091E00E941E0483E592E00197F1F762E0A9
:1006800085EF91E00E941E0415C080620E949400D4
:100690008BE496E40197F1F78091040280620E9456
:1006A000940083E592E00197F1F780910402806263
:1006B0000E9494008091040280620E94940084E071
:1006C000809305028CE00E9494000E94ED0082E07D
:1006D0008093060286E0DF91CF910C949400CF9234
:1006E000DF92EF92FF920F931F93CF93DF936C01F2
:1006F0007A018B01C0E0D0E0CE15DF0581F0D80192
:100700006D918D01D601ED91FC910190F081E02D6C
:10071000C6010995892B11F02196EECF7E01C70104
:10072000DF91CF911F910F91FF90EF90DF90CF90CD
:100730000895089580E090E008950E945811CF93A5
:10074000DF93EC0160E08E810E949F0261E08E8168
:100750000E949F0260E08E810E949F028BE891E0E0
:100760000197F1F7DF91CF910895FC0181850E94F7
:10077000760221E0892B09F420E0822F0895862F4C
:10078000642F0C94CD040F931F938091D801909106
:10079000D9018130910539F50E948D0500914502FE
:1007A000109146022091470230914802DC01CB01B2
:1007B000801B910BA20BB30B843F9140A105B105A7
:1007C000D0F00E948D05609345027093460280939D
:1007D00047029093480287E00E94760261E0892BED
:1007E00029F060E003C0892B31F461E087E01F91BC
:1007F0000F910C949F021F910F91089587E392E04F
:100800000C9471018DE092E00C9471018BE192E007
:100810000C94710189E292E00C94710187E392E0FB
:100820000E941C0189E292E00E941C018BE192E08F
:100830000E941C018DE092E00C941C01CF92DF928B
:10084000EF92FF920F931F93CF93DF936C017C0184
:1008500087E0E80EF11CC0E0D0E0062F10E0B80100
:100860000C2E02C0759567950A94E2F76170F70146
:1008700081917F010E949F022196C430D10579F7B2
:10088000C601DF91CF911F910F91FF90EF90DF9004
:10089000CF900C949F03CF92DF92EF92FF920F9331
:1008A0001F93CF93DF93EC01F62E642F8C810E946F
:1008B0009F028D818F3F19F060E00E949F028F851B
:1008C0000F2D10E084FF25C06E0187E0C80ED11CFB
:1008D000E12CF12CB8010E2C02C0759567950A9495
:1008E000E2F76170F60181916F010E949F02FFEFB4
:1008F000EF1AFF0A88E0E816F10461F7CE01DF91F4
:10090000CF911F910F91FF90EF90DF90CF900C94BB
:100910009F03B80184E0759567958A95E1F7CE014C
:100920000E941E046F2DCE01DF91CF911F910F9178
:10093000FF90EF90DF90CF900C941E0441E00E9456
:100940004B0481E090E00895833081F028F48130F9
:1009500099F08230A1F008958730A9F08830B9F07D
:100960008430D1F4809180008F7D03C0809180001D
:100970008F7780938000089584B58F7702C084B507
:100980008F7D84BD08958091B0008F7703C08091E2
:10099000B0008F7D8093B0000895CF93DF9390E0F7
:1009A000FC01E056FF4F2491FC01E457FF4F849176
:1009B000882361F190E0880F991FFC01E853FF4FF5
:1009C000C591D491FC01E858FF4FA591B4916111F4
:1009D00009C09FB7F8948881209582238883EC9181
:1009E0002E230BC0623061F49FB7F8948881322FB8
:1009F000309583238883EC912E2B2C939FBF06C0C8
:100A00008FB7F894E8812E2B28838FBFDF91CF9189
:100A100008951F93CF93DF93182FEB0161E00E949D
:100A2000CD04209711F460E004C0CF3FD10539F424
:100A300061E0812FDF91CF911F910C949F02E12FF4
:100A4000F0E0EC54FF4FE491E330F9F048F4E1308A
:100A5000B9F0E230A1F584B5806284BDC8BD34C070
:100A6000E730E9F0E83019F1E43049F58091800091
:100A7000806280938000D0938B00C0938A0024C052
:100A800084B5806884BDC7BD1FC080918000806828
:100A900080938000D0938900C093880015C0809116
:100AA000B00080688093B000C093B3000DC0809107
:100AB000B00080628093B000C093B40005C0C0381D
:100AC000D1050CF0B5CFAFCFDF91CF911F91089535
:100AD0003FB7F89480914E0290914F02A09150023E
:100AE000B091510226B5A89B05C02F3F19F0019681
:100AF000A11DB11D3FBFBA2FA92F982F8827820FA4
:100B0000911DA11DB11DBC01CD0142E0660F771FF3
:100B1000881F991F4A95D1F708952FB7F8946091CF
:100B20004A0270914B0280914C0290914D022FBF6E
:100B300008951F920F920FB60F9211242F933F9397
:100B40008F939F93AF93BF9380914A0290914B02F2
:100B5000A0914C02B0914D023091490223E0230F45
:100B60002D3720F40196A11DB11D05C026E8230FE5
:100B70000296A11DB11D2093490280934A029093D1
:100B80004B02A0934C02B0934D0280914E02909183
:100B90004F02A0915002B09151020196A11DB11DCA
:100BA00080934E0290934F02A0935002B093510253
:100BB000BF91AF919F918F913F912F910F900FBE59
:100BC0000F901F901895789484B5826084BD84B589
:100BD000816084BD85B5826085BD85B5816085BD38
:100BE00080916E00816080936E00109281008091F0
:100BF0008100826080938100809181008160809378
:100C00008100809180008160809380008091B1009C
:100C100084608093B1008091B00081608093B000C7
:100C200080917A00846080937A0080917A0082605B
:100C300080937A0080917A00816080937A0080911D
:100C40007A00806880937A001092C10060E088E0AA
:100C50000E94CD0460E089E00E94CD0460E08AE05B
:100C60000E94CD0460E08DE00E94CD046DE070E054
:100C700087E392E00E940701C9E1D0E0D0933E02F1
:100C8000C0933D0268E070E089E292E00E940701B3
:100C9000D0933002C0932F0269E070E08BE192E0C4
:100CA0000E940701D0932202C09321026AE070E003
:100CB0008DE092E00E940701D0931402C0931302CA
:100CC00061E080E00E94CD0461E085E00E94CD04F7
:100CD00061E086E00E94CD0461E087E00E94CD04DF
:100CE00080E090E0A8EBB1E48093E2019093E3010F
:100CF000A093E401B093E50160E070E085E00E941C
:100D0000090560E070E086E00E94090560E080E08F
:100D10000E949F0282E00E94CE02C1E0D0E027E064
:100D2000222E312CE091F301F091F401E830F1052D
:100D300008F0C4C7EC5CFF4F0C944B110E94ED000F
:100D400006E410E08091F3019091F401892B09F001
:100D5000B5C70E94C3030E940E0460E080E00E94B9
:100D6000F5008CE191E00E947B010E9468054B0137
:100D70005C0194E6C92ED12CE12CF12C0E9468056F
:100D8000DC01CB0188199909AA09BB09883E934067
:100D9000A105B10598F321E0C21AD108E108F108D4
:100DA00088EE880E83E0981EA11CB11CC114D104EA
:100DB000E104F10419F76091E2017091E30180917F
:100DC000E4019091E50141E00E947D018AE0E82E76
:100DD000F12C812C912C540180E480937C00809133
:100DE0007A00806480937A0080917A0086FDFCCF3F
:100DF000609178008091790070E0782B072E000CCC
:100E0000880B990B0E94241020E030E040EA50E467
:100E10000E94D91020E030EC4FE754E40E947A0F92
:100E20002AE037ED43E25CE30E947A0F9B01AC01BC
:100E3000C501B4010E94090F4B015C0191E0E91A60
:100E4000F10851F620E030E040E251E4C501B40180
:100E50000E947A0F6093DE017093DF018093E001BE
:100E60009093E10161E080E00E94F50081E291E071
:100E70000E947B016091DE017091DF018091E001B1
:100E80009091E10141E00E947D01D093D901C0938E
:100E9000D80161E080E00E949F02C090E201D09002
:100EA000E301E090E401F090E5018090DE01909094
:100EB000DF01A090E001B090E101A5019401C7011C
:100EC000B6010E94080F2B013C01209100013091D6
:100ED000010140910201509103010E94D9100E942A
:100EE000EC0F673471052CF47093DB016093DA0129
:100EF00004C01093DB010093DA01209104013091CA
:100F000005014091060150910701C301B2010E9401
:100F1000D9100E94EC0F6F3F710509F02CF470930B
:100F2000DD016093DC0106C08FEF90E09093DD015E
:100F30008093DC018091DC019091DD01C89734F44D
:100F400088E390E09093DD018093DC01A50194019A
:100F5000C701B6010E94D4107090E60118167CF407
:100F600071100DC0D093EA01C093E9011092F20113
:100F70001092F1016091DA017091DB013BC0A50193
:100F80009401C701B6010E94750F18167CF071100C
:100F90000DC01092EA011092E901D093F201C093C2
:100FA000F1016091DC017091DD0148C0772009F406
:100FB0004DC08091EB019091EC012091EF013091B7
:100FC000F00181309105E9F421153105D1F4A091AA
:100FD000E701B091E80126E430E00E94511124E6D7
:100FE00030E040E050E00E94B80E3093E8012093DA
:100FF000E701B90185E00E94090560E070E086E044
:1010000023C02130310511F5892B01F5A091ED01A7
:10101000B091EE0127EC30E00E94511124E630E05F
:1010200040E050E00E94B80ECA01B901685C7F4FF1
:101030008F4F9F4F7093EE016093ED0186E00E9409
:10104000090560E070E085E00E9409058091E901F2
:101050009091EA01892BB1F48091F1019091F20114
:10106000892B81F460E08AE00E94F50086E291E03D
:101070000E947B0161E08CE00E94F5008DE291E02E
:101080000E947B018091D8019091D901019751F57F
:101090008091E9019091EA012091F1013091F201F2
:1010A0008130910551F42115310539F460E08AE071
:1010B0000E94F50081E391E00BC02130310591F4ED
:1010C000892B81F460E08AE00E94F5008FE391E0D3
:1010D0000E947B0161E08CE00E94F5008DE291E0CE
:1010E0000E947B018091E601882379F18091EB01D8
:1010F0009091EC01019769F48091F1019091F201D6
:10110000892B39F460E08AE00E94F50087E391E0E2
:1011100012C08091EF019091F0010197B1F480919C
:10112000E9019091EA01892B81F460E08AE00E9454
:10113000F5008EE391E00E947B0161E08CE00E946B
:10114000F5008DE291E00E947B010E940A04882351
:1011500009F4F8CDD093F401C093F301F3CD0E94CC
:10116000ED0002E010E08091F3019091F40101970D
:1011700009F0A4C50E940E040E94C30360E080E051
:101180000E94F50086E491E00E947B0161E080E02E
:101190000E94F5008CE191E00E947B016091E201E8
:1011A0007091E3018091E4019091E50141E00E949A
:1011B0007D010E94FE03882309F45EC061E088E09F
:1011C0000E94F50084E591E00E947B010E940E04DC
:1011D0000E9406048823B1F020E030E040E85FE39D
:1011E0006091E2017091E3018091E4019091E50149
:1011F0000E94090F6093E2017093E3018093E40180
:101200009093E5010E9402048823B1F020E030E0D1
:1012100040E85FE36091E2017091E3018091E401B5
:101220009091E5010E94080F6093E2017093E30141
:101230008093E4019093E50161E080E00E94F50075
:101240008CE191E00E947B016091E2017091E301E9
:101250008091E4019091E50141E00E947D010E94AE
:10126000FE03882309F4B2CF61E088E00E94F50014
:1012700080EA91E00E947B010E940A04882309F41D
:1012800072CF1093F4010093F3016DCF0E94ED0033
:1012900003E010E08091F3019091F401029709F0CE
:1012A0000DC50E94C3030E940E0460E080E00E940E
:1012B000F50087E591E00E947B0161E080E00E94FB
:1012C000F50088E691E00E947B0160910001709139
:1012D0000101809102019091030141E00E947D0192
:1012E0000E94FE03882309F46CC00E940E040E9431
:1012F00006048823B1F020E030E040E85FE360912D
:1013000000017091010180910201909103010E94FE
:10131000090F609300017093010180930201909383
:1013200003010E940204882341F120E030E040E8FC
:101330005FE3609100017091010180910201909141
:1013400003010E94080F6B017C0120E030E0A9013D
:101350000E94750F87FD09C0C0920001D092010163
:10136000E0920201F092030108C010920001109275
:101370000101109202011092030161E088E00E94D5
:10138000F50084E591E00E947B0161E084E00E9429
:10139000F50060910001709101018091020190912E
:1013A000030141E00E947D010E94FE03882309F4AD
:1013B0009CCF61E088E00E94F50080EA91E00E9405
:1013C0007B010E940A04882309F464CF1093F4017E
:1013D0000093F3015FCF0E94ED0004E010E08091E4
:1013E000F3019091F401039709F068C40E940E0480
:1013F0000E94C30360E080E00E94F5008DE691E06A
:101400000E947B0161E080E00E94F50088E691E0A7
:101410000E947B0160910401709105018091060199
:101420009091070141E00E947D010E94FE03882304
:1014300009F46CC00E940E040E9406048823B1F0D7
:1014400020E030E040E85FE3609104017091050125
:1014500080910601909107010E94090F6093040199
:101460007093050180930601909307010E94020486
:10147000882341F120E030E040E85FE3609104011F
:101480007091050180910601909107010E94080F5B
:101490006B017C0120E030E0A9010E94750F87FDFF
:1014A00009C0C0920401D0920501E0920601F092B9
:1014B000070108C010920401109205011092060164
:1014C0001092070161E088E00E94F50084E591E058
:1014D0000E947B0161E084E00E94F50060910401BC
:1014E00070910501809106019091070141E00E94F1
:1014F0007D010E94FE03882309F49CCF61E088E00F
:101500000E94F50080EA91E00E947B010E940A049B
:10151000882309F464CF1093F4010093F3015FCFA3
:101520000E94ED0005E010E08091F3019091F4013C
:10153000049709F0C3C30E940E040E94C30360E035
:1015400082E00E94F5008EE791E00E947B0180918D
:10155000E60161E0882331F087E00E94F5008DE22A
:1015600091E005C087E00E94F5008AE891E00E94C2
:101570007B010E94FE038823B9F161E08AE00E94AA
:10158000F50084E591E00E947B01FF24F3940E9422
:101590000E040E940A04882349F08091E601882302
:1015A00019F01092E60102C0F092E6018091E60186
:1015B00061E0882331F087E00E94F5008DE291E040
:1015C00005C087E00E94F5008AE891E00E947B0157
:1015D0000E94FE038823D9F261E08AE00E94F500B0
:1015E00080EA91E00E947B018091E601882351F01E
:1015F0000E940A04882309F497CF1093F401009302
:10160000F30192CF0E940A04882309F48DCF30920F
:10161000F4012092F30188CF0E94ED0006E010E073
:101620008091F3019091F401059709F047C30E945E
:101630000E040E94C30360E082E00E94F5008EE782
:1016400091E00E947B0161E080E00E94F5008EE85D
:1016500091E00E947B012091E9013091EA01213063
:10166000310539F08091EB019091EC0181309105C9
:1016700091F561E086E00E94F5008DE291E00E9424
:101680007B0161E08BE00E94F5006091E7017091C1
:10169000E801072E000C880B990B0E9451028091E3
:1016A000E7019091E80161E08436910531F48EE024
:1016B0000E94F50085E991E020C00A9734F08DE0A2
:1016C0000E94F50087E991E018C08CE00E94F500C7
:1016D0008AE991E012C0232B11F0892B81F461E09B
:1016E00086E00E94F5008AE891E00E947B0161E0BB
:1016F0008BE00E94F5008EE991E00E947B010E9440
:10170000FE03882309F4E4C061E089E00E94F5004B
:1017100084E591E00E947B010E940E040E940A046D
:101720008823E9F08091EB019091EC01019729F475
:101730001092EC011092EB0112C081E090E09093C6
:10174000EC018093EB011092F0011092EF011092E6
:10175000F2011092F1011092EA011092E901209138
:10176000E9013091EA012130310539F08091EB0136
:101770009091EC018130910539F461E086E00E949E
:10178000F5008DE291E012C0232B11F0892B81F43A
:1017900061E086E00E94F5008AE891E00E947B010A
:1017A00061E08BE00E94F5008EE991E00E947B01F0
:1017B0000E94FE03882309F4AFCF8091E901909144
:1017C000EA01019739F08091EB019091EC010197CA
:1017D00009F065C00E940E040E940604882361F08F
:1017E0008091E7019091E801843691052CF40596EB
:1017F0009093E8018093E7010E940204882361F03E
:101800008091E7019091E801181619062CF40597CC
:101810009093E8018093E70161E089E00E94F50080
:1018200083EA91E00E947B0161E08BE00E94F50079
:101830006091E7017091E801072E000C880B990B6D
:101840000E9451028091E7019091E80161E08436A5
:10185000910531F48EE00E94F50085E991E00DC01C
:101860000A9734F08DE00E94F50087E991E005C009
:101870008CE00E94F5008AE991E00E947B010E94C1
:10188000FE03882309F4A6CF61E089E00E94F500F9
:1018900080EA91E00E947B0180E090E002C081E05C
:1018A00090E02091E9013091EA01232B49F0209149
:1018B000EB013091EC01232B19F0019749F42CCF67
:1018C00061E089E00E94F50080EA91E00E947B01DE
:1018D0000E940A04882309F4A3CE1093F401009314
:1018E000F3019ECE0E94ED008091F3019091F401EE
:1018F000069709F0E3C10E940E040E94C30360E052
:1019000082E00E94F5008EE791E00E947B0161E099
:1019100080E00E94F50086EA91E00E947B01209120
:10192000F1013091F2012130310539F08091EF0160
:101930009091F00181309105B1F561E085E00E9460
:10194000F5008DE291E00E947B0161E08AE00E9457
:10195000F5006091ED017091EE01072E000C880BEF
:10196000990B0E94510261E08DE00E94F500809188
:10197000ED019091EE0161E08436910531F48DE046
:101980000E94F50085E991E020C00A9734F08CE0D0
:101990000E94F50087E991E018C08BE00E94F500F5
:1019A0008AE991E012C0232B11F0892B81F461E0C8
:1019B00085E00E94F5008AE891E00E947B0161E0E9
:1019C0008AE00E94F5008EE991E00E947B010E946E
:1019D000FE03882309F4E4C061E088E00E94F5007A
:1019E00084E591E00E947B010E940E040E940A049B
:1019F0008823E9F08091EF019091F001019729F49B
:101A00001092F0011092EF0112C081E090E09093EB
:101A1000F0018093EF011092EC011092EB01109213
:101A2000F2011092F1011092EA011092E901209165
:101A3000F1013091F2012130310539F08091EF014F
:101A40009091F0018130910539F461E085E00E94C8
:101A5000F5008DE291E012C0232B11F0892B81F467
:101A600061E085E00E94F5008AE891E00E947B0138
:101A700061E08AE00E94F5008EE991E00E947B011E
:101A80000E94FE03882309F4AFCF8091F101909169
:101A9000F201019739F08091EF019091F0010197E7
:101AA00009F065C00E940E040E940604882361F0BC
:101AB0008091ED019091EE01843691052CF40A9607
:101AC0009093EE018093ED010E940204882361F05F
:101AD0008091ED019091EE01181619062CF40A97E9
:101AE0009093EE018093ED0161E088E00E94F500A3
:101AF00083EA91E00E947B0161E08AE00E94F500A8
:101B00006091ED017091EE01072E000C880B990B8E
:101B10000E9451028091ED019091EE0161E08436C6
:101B2000910531F48DE00E94F50085E991E00DC04A
:101B30000A9734F08CE00E94F50087E991E005C037
:101B40008BE00E94F5008AE991E00E947B010E94EF
:101B5000FE03882309F4A6CF61E088E00E94F50027
:101B600080EA91E00E947B0180E090E002C081E089
:101B700090E02091F1013091F201232B49F0209166
:101B8000EF013091F001232B19F0019749F42CCF8C
:101B900061E088E00E94F50080EA91E00E947B010C
:101BA0000E940A04882309F49FCE3092F401209207
:101BB000F3019ACE0E94ED008091F3019091F4011F
:101BC000079709F07BC00E94C3030E940E0460E0E7
:101BD00082E00E94F5008CEA91E00E947B018091F6
:101BE000D8019091D9018130910539F461E084E008
:101BF0000E94F5008AEB91E008C0892B41F461E076
:101C000084E00E94F50083EC91E00E947B010E9439
:101C1000FE03882309F448C00E940E040E940A04AF
:101C2000882389F08091D8019091D901019729F4F6
:101C30001092D9011092D80106C081E090E09093F3
:101C4000D9018093D80161E08CE00E94F50084E521
:101C500091E00E947B018091D8019091D90181305F
:101C6000910539F461E084E00E94F5008AEB91E08F
:101C700008C0892B41F461E084E00E94F50083EC08
:101C800091E00E947B010E94FE03882329F261E01B
:101C90008CE00E94F50080EA91E00E947B01609157
:101CA000D80180E00E949F020E940A04882309F460
:101CB00083CF1092F4011092F3017ECF80E090E088
:101CC000892B09F42FC80E94000029C8E5EFF1E034
:101CD000138212828CE091E0918380838CE0848374
:101CE0008FEF85838BE0868384E0878383E0808722
:101CF00082E0818781E082871386148615861686A6
:101D000017860E94CE02E7E3F2E028E131E031835A
:101D1000208312821382148215828AE090E09783D6
:101D2000868310861186E9E2F2E0318320831282F5
:101D30001382148215829783868310861186EBE1C5
:101D4000F2E03183208312821382148215829783FA
:101D5000868310861186EDE0F2E0318320831282C3
:101D600013821482158297838683108611860895C4
:101D7000052E97FB1EF400940E94CF0E57FD07D04E
:101D80000E94D70E07FC03D04EF40C94CF0E509552
:101D90004095309521953F4F4F4F5F4F0895909557
:101DA0008095709561957F4F8F4F9F4F0895A1E269
:101DB0001A2EAA1BBB1BFD010DC0AA1FBB1FEE1FC5
:101DC000FF1FA217B307E407F50720F0A21BB30B10
:101DD000E40BF50B661F771F881F991F1A9469F78C
:101DE00060957095809590959B01AC01BD01CF01E8
:101DF0000895A29FB001B39FC001A39F700D811DE4
:101E00001124911DB29F700D811D1124911D089503
:101E10005058BB27AA270E94200F0C949A100E94AA
:101E20008C1038F00E94931020F039F49F3F19F481
:101E300026F40C9489100EF4E095E7FB0C948310C3
:101E4000E92F0E94AB1058F3BA1762077307840793
:101E5000950720F079F4A6F50C94CD100EF4E095DA
:101E60000B2EBA2FA02D0B01B90190010C01CA0154
:101E7000A0011124FF27591B99F0593F50F4503EFF
:101E800068F11A16F040A22F232F342F4427585FF1
:101E9000F3CF469537952795A795F0405395C9F709
:101EA0007EF41F16BA0B620B730B840BBAF09150C1
:101EB000A1F0FF0FBB1F661F771F881FC2F70EC060
:101EC000BA0F621F731F841F48F487957795679533
:101ED000B795F7959E3F08F0B0CF9395880F08F01F
:101EE0009927EE0F9795879508950E945F1008F443
:101EF00081E008950E948E0F0C949A100E94931016
:101F000058F00E948C1040F029F45F3F29F00C94A7
:101F1000831051110C94CE100C9489100E94AB10B8
:101F200068F39923B1F3552391F3951B550BBB2708
:101F3000AA2762177307840738F09F5F5F4F220F4D
:101F4000331F441FAA1FA9F335D00E2E3AF0E0E844
:101F500032D091505040E695001CCAF72BD0FE2F8E
:101F600029D0660F771F881FBB1F26173707480722
:101F7000AB07B0E809F0BB0B802DBF01FF279358DA
:101F80005F4F3AF09E3F510578F00C9483100C940B
:101F9000CE105F3FE4F3983ED4F38695779567952E
:101FA000B795F7959F5FC9F7880F911D969587950F
:101FB00097F90895E1E0660F771F881FBB1F62172E
:101FC00073078407BA0720F0621B730B840BBA0BEC
:101FD000EE1F88F7E09508950E94F30F6894B11101
:101FE0000C94CE1008950E94B31088F09F5798F07B
:101FF000B92F9927B751B0F0E1F0660F771F881F0E
:10200000991F1AF0BA95C9F714C0B13091F00E9427
:10201000CD10B1E008950C94CD10672F782F88274C
:10202000B85F39F0B93FCCF3869577956795B3954E
:10203000D9F73EF490958095709561957F4F8F4FBD
:102040009F4F0895E89409C097FB3EF490958095C2
:10205000709561957F4F8F4F9F4F9923A9F0F92F6E
:1020600096E9BB279395F695879577956795B795EC
:10207000F111F8CFFAF4BB0F11F460FF1BC06F5FD2
:102080007F4F8F4F9F4F16C0882311F096E911C0E4
:10209000772321F09EE8872F762F05C0662371F005
:1020A00096E8862F70E060E02AF09A95660F771F19
:1020B000881FDAF7880F9695879597F90895990FF5
:1020C0000008550FAA0BE0E8FEEF16161706E80702
:1020D000F907C0F012161306E407F50798F0621B23
:1020E000730B840B950B39F40A2661F0232B242BF8
:1020F000252B21F408950A2609F4A140A6958FEF17
:10210000811D811D089597F99F6780E870E060E068
:1021100008959FEF80EC089500240A941616170680
:1021200018060906089500240A94121613061406C8
:1021300005060895092E0394000C11F4882352F02B
:10214000BB0F40F4BF2B11F460FF04C06F5F7F4FE3
:102150008F4F9F4F089557FD9058440F551F59F0CA
:102160005F3F71F04795880F97FB991F61F09F3F84
:1021700079F087950895121613061406551FF2CFAD
:102180004695F1DF08C0161617061806991FF1CFFD
:1021900086957105610508940895E894BB27662724
:1021A0007727CB0197F908950E945F1008F48FEF0D
:1021B00008950E94EC100C949A100E948C1038F034
:1021C0000E94931020F0952311F00C9483100C942E
:1021D000891011240C94CE100E94AB1070F3959FBF
:1021E000C1F3950F50E0551F629FF001729FBB270E
:1021F000F00DB11D639FAA27F00DB11DAA1F649FAA
:102200006627B00DA11D661F829F2227B00DA11D5C
:10221000621F739FB00DA11D621F839FA00D611DE2
:10222000221F749F3327A00D611D231F849F600D03
:10223000211D822F762F6A2F11249F5750409AF02C
:10224000F1F088234AF0EE0FFF1FBB1F661F771FB8
:10225000881F91505040A9F79E3F510580F00C9483
:1022600083100C94CE105F3FE4F3983ED4F3869530
:1022700077956795B795F795E7959F5FC1F7FE2B23
:10228000880F911D9695879597F908950E945F1084
:10229000880B990B0895EE0FFF1F0590F491E02D28
:1022A00009940E94F90EB7FF0895821B930B0895BD
:0E22B00081E090E0F8940C945D11F894FFCF5B
:1022BE000000803F0000803F000000009E046F037E
:1022CE009A03990300000000B503BF0353503A2050
:1022DE000050563A2000447269766572004F4E20C7
:1022EE00004865617420002020486561740020203C
:1022FE002046616E20004E65772053657420506F26
:10230E00696E74003C2D004E65772050726F702EF2
:10231E00204761696E2048004B703A20004E657769
:10232E002050726F702E204761696E2046004D61FD
:10233E006E75616C204D6F6465004F4646004865B2
:10234E0061743A2000250025200025202000202041
:10235E002020002D3E0046616E3A200044726976C0
:10236E0065722053746174757300456E61626C659D
:10237E0064200044697361626C6564006E616E0076
:08238E00696E66006F766600BF
:00000001FF
